:03000000020100FA
:1001000002010B12019F12033280F875814075893C
:1001100020758841759850758DFDC292120122029A
:100120000103780C790112030C780C790112030C8D
:10013000780C790112030C780C790112030C12036C
:1001400017780B790712030C780B790712030C78D8
:100150000B790712030C780B790712030C120317A3
:100160007809790012030C7809790012030C7809D8
:10017000790012030C7809790012030C1203177826
:100180000A790F12030C780A790F12030C780A7996
:100190000F12030C780A790F12030C120317229026
:1001A0004000E0F9780112030C904008E0F9780172
:1001B00012030C904010E0F9780112030C904018E3
:1001C000E0F9780112030C120317904001E0F9786E
:1001D0000212030C904009E0F9780212030C9040DF
:1001E00011E0F9780212030C904019E0F97802123C
:1001F000030C120317904002E0F9780312030C90ED
:10020000400AE0F9780312030C904012E0F97803F9
:1002100012030C90401AE0F9780312030C12031732
:10022000904003E0F9780412030C90400BE0F97859
:100230000412030C904013E0F9780412030C904070
:100240001BE0F9780412030C120317904004E0F944
:10025000780512030C90400CE0F9780512030C901D
:100260004014E0F9780512030C90401CE0F9780581
:1002700012030C120317904005E0F9780612030CE4
:1002800090400DE0F9780612030C904015E0F978E3
:100290000612030C90401DE0F9780612030C1203BD
:1002A00017904006E0F9780712030C90400EE0F931
:1002B000780712030C904016E0F9780712030C90AF
:1002C000401EE0F9780712030C120317904007E074
:1002D000F9780812030C90400FE0F9780812030C2B
:1002E000904017E0F9780812030C90401FE0F9786D
:1002F0000812030C12031722E87908C29130E704B0
:10030000D2908002C290D29123D9F022C001120271
:10031000F8D0001202F822C292D29222907000E02D
:10032000F87A07A3E0F9E8F0A801DAF7907000E89E
:10033000F02278017940D9FE7940D8FA22C2998812
:10034000993099FD223098FDA899C29822780A1216
:10035000033D780D12033D22E8C0E012036AF81253
:10036000033DA80212033DD0E022FA540F24F650B8
:10037000022407243ACAC4540F24F6500224072446
:100380003A220483220103070F1F3F7FFFFFFFFF75
:10039000FFFFFFFFFF0483220000000000000000B9
:0803A0000103070F1F3F7FFF5F
:00000001FF
