:03000000020100FA
:1001000002012C1203B11203A9B8FFF71201CB129E
:10011000019EA820B800081202031202ED800BB85D
:100120000105120254800312029F80D77581407529
:100130008920758841759850758DFD12016D1201E9
:1001400044020103780C790112036A120375780BDB
:10015000790712036A1203757809790012036A128B
:100160000375780A790F12036A120375227520014C
:1001700012019A222274FF904000F0740090400116
:10018000F0904002F0904003F0904004F090400561
:10019000F0904006F0904007F02275211122A83817
:1001A000B817081201747520008016B816081201DD
:1001B00075752001800BB8150812019A7520028010
:1001C0000022C00090FE20E0D000221203B188304F
:1001D0001203B188311203B188321203B18833128D
:1001E00003B188341203B188351203B18836120383
:1001F000B188371203B1883822E875F020841203E1
:10020000EEF822A8301201F9904000E8F0A831126F
:1002100001F9904001E8F0A8321201F9904002E89B
:10022000F0A8331201F9904003E8F0A8341201F964
:10023000904004E8F0A8351201F9904005E8F0A8D4
:10024000361201F9904006E8F0A8371201F9904003
:1002500007E8F022A838B801451201751202ED1224
:10026000039312037D1202ED12039312037D120217
:10027000ED12039312037D1202ED12039312037D1C
:100280001202ED12039312037D1202ED1203931278
:10029000037D1202ED12039312037D1202ED22A8D8
:1002A0003820080B200911200A17200B1D80247507
:1002B00022417523000202D37522417523080202F0
:1002C000D37522417523100202D37522417523187C
:1002D0000202D3228522838523827F087E01E0F9F2
:1002E000A80612036A120375A30EDFF222904000E3
:1002F000E0F9780112036A120375904001E0F97881
:100300000212036A120375904002E0F978031203A7
:100310006A120375904003E0F9780412036A12032D
:1003200075904004E0F9780512036A120375904055
:1003300005E0F9780612036A120375904006E0F9A9
:10034000780712036A120375904007E0F9780812E3
:10035000036A12037522E87908C29130E704D2904B
:100360008002C290D29123D9F022C001120356D04C
:100370000012035622C292D29212039E2290400093
:10038000E0F87A07A3E0F9E8F0A801DAF790400076
:10039000E8F022782079FFD9FE79FFD8FA22780197
:1003A0007940D9FE7940D8FA22C29988993099FDCE
:1003B000223098FDA899C29822780A1203A9780DD4
:1003C0001203A922E8C0E01203D6F81203A9A8027A
:1003D0001203A9D0E022FA540F24F6500224072475
:1003E0003ACAC4540F24F650022407243A22048344
:0903F000220103070F1F3F7FFFEC
:00000001FF
