:40000000008000202D0E0000193600001936000019360000193600001936000019360000193600001936000019360000193600001936000019360000193600001936000093
:400040001936000019360000193600001936000019360000193600001936000019360000193600001936000019360000193600001936000019360000193600001936000090
:400080001936000019360000193600001936000019360000193600001936000019360000193600001936000019360000193600001936000019360000193600001936000050
:4000C00080B51448144B21E05C689968DD688C420CD0002205E0A6180832D6E9008941E902898C460831AA42F5D101E004EB050C1C696146002204E008320026002741E9DE
:4001000002670831A242F7D1143301380028DBD103F06AFA01000000F036000048F21023C1F6FF731A780AB901201870704700BF48F20010C1F6FF7008B503682BB140F2EF
:400140000003C0F2000303B1984708BDF0B5A1B000AFF860B9607A603B604FF001037B614FF00003BB6107E07B694FEA43037B61BB6903F10103BB61BA69BB689A42F3DB19
:400180007B694FEA6303BB624FF000033B624FF00003BB615FE0BA693B6A9A4243DABB694FEAC3027B681344D3E90023C7E91223BB694FEAC3023B681344D3E90023C7E997
:4001C0001423BB694FEAC3027B6802EB03013B6A4FEAC3027B681344D3E90023C1E90023BB694FEAC3023B6802EB03013B6A4FEAC3023B681344D3E90023C1E900233B6AA5
:400200004FEAC3027B6802EB0301D7E91223C1E900233B6A4FEAC3023B6802EB0301D7E91423C1E90023BB6A7B6208E03A6A7B6AC3EB02033B627B6A4FEA63037B627A6A27
:400240003B6A9A42F2DD3A6A7B6A13443B62BB6903F10103BB617B6903F1FF32BB699A4299DC4FF000024FF03F4303F57003C7E90E234FF000024FF00003C7E910234FF008
:4002800001037B634FF00003FB625DE17B6B3B637B6B4FEA43037B634FF000024FF07E5303F5E003C7E91A234FF000024FF00003C7E91C234FF000033B62F7E03B6ABB61B6
:4002C000B3E0BA693B6B1344FB61FB694FEAC3027B681344D3E9002310461946D7E91A2302F088FD02460B4614461D46FB694FEAC3023B681344D3E9002310461946D7E945
:400300001C2302F077FD02460B462046294602F0BDFB02460B46C7E91623FB694FEAC3023B681344D3E9002310461946D7E91A2302F060FD02460B4614461D46FB694FEA4F
:40034000C3027B681344D3E9002310461946D7E91C2302F04FFD02460B462046294602F097FB02460B46C7E91823FB694FEAC3027B6802EB0304BB694FEAC3027B681344A2
:40038000D3E9002310461946D7E9162302F07EFB02460B46C4E90023FB694FEAC3023B6802EB0304BB694FEAC3023B681344D3E9002310461946D7E9182302F067FB02469C
:4003C0000B46C4E90023BB694FEAC3027B6802EB0304BB694FEAC3027B681344D3E9002310461946D7E9162302F052FB02460B46C4E90023BB694FEAC3023B6802EB030499
:40040000BB694FEAC3023B681344D3E9002310461946D7E9182302F03BFB02460B46C4E90023BA697B6B1344BB61BA697B699A42FFF647AFD7E91A01D7E90E2302F0DAFCA2
:4004400002460B4614461D46D7E91C01D7E9102302F0D0FC02460B462046294602F016FB02460B46C7E91E23D7E91A01D7E9102302F0C0FC02460B4614461D46D7E91C01EE
:40048000D7E90E2302F0B6FC02460B462046294602F0FEFA02460B46C7E91C23D7E91E23C7E91A233B6A03F101033B623A6A3B6B9A42FFF603AF4FF000004FF07E5101F58F
:4004C000E001D7E90E2302F0E1FA02460B46104619464FF000024FF0804302F0B5FD02460B461046194602F079F902460B46C7E91023FB68012B05D13B6C3B647B6C83F0F5
:4005000000437B64D7E90E014FF000024FF07E5303F5E00302F0BCFA02460B46104619464FF000024FF0804302F08EFD02460B461046194602F052F902460B46C7E90E23E3
:40054000FB6A03F10103FB62FA6ABB689A42FFF69DAEFB68012B3FD14FF00003BB6137E0BB694FEAC3027B6802EB0306BB694FEAC3027B681344D3E90045786902F0D4FB10
:4005800002460B462046294602F05EFD02460B46C6E90023BB694FEAC3023B6802EB0306BB694FEAC3023B681344D3E90045786902F0BAFB02460B462046294602F044FD14
:4005C00002460B46C6E90023BB6903F10103BB61BA697B699A42C3DB4FF00003BB6159E0BE69BA6948F21863C1F6FF734FEAC2021344D3E90001BA6948F21863C1F6FF7306
:400600004FEAC2021344D3E9002302F0F3FB02460B4614461D46BA6948F61823C1F6FF734FEAC2021344D3E90001BA6948F61823C1F6FF734FEAC2021344D3E9002302F091
:40064000D9FB02460B462046294602F021FA02460B461046194602F0C1F802460B46104619464FF000024FF0804303F5C00302F0EBFC02460B461046194648F21823C1F693
:40068000FF734FEAC6021344C3E90001BB6903F10103BB61BB697F2BA2DD07F18407BD46F0BD00BF80B483B000AF4FF000037B6030E07A6848F21823C1F6FF734FEAC2028C
:4006C00002EB03014FF000024FF00003C1E900237A6848F21863C1F6FF734FEAC20202EB03014FF000024FF00003C1E900237A6848F61823C1F6FF734FEAC20202EB030149
:400700004FF000024FF00003C1E900237B6803F101037B607B687F2BCBDD07F10C07BD4680BC704790B583B000AF4FF000033B604FF000037B604FF000033B6076E03A6887
:4007400048F61863C1F6FF734FF0000143F822103B68002B33D04FF000037B602BE03C683A6848F61863C1F6FF7353F82230184602F0DAFA3B684FEAC3027B681A4448F2EC
:400780001823C1F6FF734FEAC2021344D3E9002302F07EF902460B461046194602F0C4FD024648F61863C1F6FF7343F824207B6803F101037B607B68072BD0DD32E04FF0C6
:4007C00001037B602BE03C683A6848F61863C1F6FF7353F82230184602F0A6FA3B684FEAC3027B681A4448F21823C1F6FF734FEAC2021344D3E9002302F04AF902460B46D9
:400800001046194602F090FD024648F61863C1F6FF7343F824207B6803F101037B607B68072BD0DD3B6803F101033B603B680F2B85DD07F10C07BD4690BD00BF80B400AFF1
:4008400048F65863C1F6FF731B6803F1010248F65863C1F6FF731A60BD4680BC704700BF80B400AF48F65863C1F6FF731B681846BD4680BC704700BF80B582B000AF4FF09B
:40088000FF0000F00BFF4FF000033B6015E03A6848F61863C1F6FF7353F82230FB71FB79FF2B02D16FF00103FB71FB79184600F0F5FE3B6803F101033B603B68072BE6DD1D
:4008C00048F68063C1F6FF731B7B002B04D04FF0010000F0E3FE03E04FF0000000F0DEFE07F10807BD4680BD80B584B000AF0346FB714FF0FF0000F0D1FE4FF00003BB60AC
:4009000015E0BA6848F61863C1F6FF7353F82230FB73FB7BFF2B02D16FF00103FB73FB79184600F0BBFEBB6803F10103BB60BB68072BE6DDFB79184600F0B0FE07F1100727
:40094000BD4680BD80B500AF00F048FAFEE700BF80B582B000AFFFF783FF024648F68063C1F6FF731B68C3EB02037B6043F26C63C0F200031B687A689A422ADD48F680632A
:40098000C1F6FF735A6848F61863C1F6FF7353F822301A4648F68063C1F6FF739B689A420FD948F68063C1F6FF734FF001021A73FFF756FF024648F68063C1F6FF731A60EC
:4009C0000EE048F68063C1F6FF734FF000021A7306E048F68063C1F6FF734FF000021A73FFF73EFF024648F6A063C1F6FF731B68C3EB02037B6043F26C63C0F200031B68C1
:400A00007A689A422ADD48F6A063C1F6FF735A6848F61863C1F6FF7353F822301A4648F6A063C1F6FF739B689A420FD948F6A063C1F6FF734FF001021A73FFF711FF02462E
:400A400048F6A063C1F6FF731A600EE048F6A063C1F6FF734FF000021A7306E048F6A063C1F6FF734FF000021A7307F10807BD4680BD00BF80B500AFFFF76AFFFFF7FCFE15
:400A800080BD00BF98B500AF4FF0010001F078F90346002B25D048F66863C1F6FF731C6801F094F903469BB21BB24FF0640202FB03F3184602F038F948F21863C1F6FF73A5
:400AC0004FEAC4021344C3E9000148F66863C1F6FF731B6803F1010248F66863C1F6FF731A6048F66863C1F6FF731B68802B1AD14FF001004FF0070148F21862C1F6FF72ED
:400B000048F61823C1F6FF73FFF720FBFFF70AFEFFF7B0FFFFF7C6FD48F66863C1F6FF734FF000021A6098BD80B582B000AF0346FB71FB79A3F13003372B00F20D8101A2D9
:400B400052F823F0250C0000370C0000490C0000590D0000590D0000590D0000590D0000590D0000590D0000590D0000590D0000590D0000590D0000590D0000590D000087
:400B8000590D00005B0C00006B0C00007B0C00008B0C00009B0C0000AB0C0000BB0C0000CB0C0000590D0000590D0000590D0000590D0000590D0000590D0000590D00000D
:400BC000590D0000590D0000590D0000590D0000590D0000590D0000590D0000590D0000590D0000590D0000590D0000590D0000590D0000590D0000590D0000590D000095
:400C0000590D0000DB0C0000EB0C0000FB0C00000B0D00001B0D00002B0D00003B0D00004B0D00004FF01700FFF75EFE4FF4FA7000F068F990E04FF01600FFF755FE4FF45A
:400C4000FA7000F05FF987E04FF01500FFF74CFE4FF4FA7000F056F97EE048F68063C1F6FF734FF000025A6076E048F68063C1F6FF734FF001025A606EE048F68063C1F676
:400C8000FF734FF002025A6066E048F68063C1F6FF734FF003025A605EE048F68063C1F6FF734FF004025A6056E048F68063C1F6FF734FF005025A604EE048F68063C1F62A
:400CC000FF734FF006025A6046E048F68063C1F6FF734FF007025A603EE048F68063C1F6FF734FF020029A6036E048F68063C1F6FF734FF040029A602EE048F68063C1F68B
:400D0000FF734FF050029A6026E048F68063C1F6FF734FF060029A601EE048F68063C1F6FF734FF080029A6016E048F68063C1F6FF734FF0A0029A600EE048F68063C1F6E7
:400D4000FF734FF0C0029A6006E048F68063C1F6FF734FF0E0029A6007F10807BD4680BD80B400AF48F68063C1F6FF734FF000025A6048F68063C1F6FF734FF080029A6047
:400D800048F68063C1F6FF734FF000021A6048F68063C1F6FF734FF000021A7348F6A063C1F6FF734FF004025A6048F6A063C1F6FF734FF050029A6048F6A063C1F6FF734E
:400DC0004FF000021A6048F6A063C1F6FF734FF000021A73BD4680BC704700BF80B500AF00F032FD00F004FE00F0A0F94FF0010000F0DCF962B600F06BFC01F0D1F900F0AE
:400E000093FB00F021FC01F011F901F09FF900F08DFE00F0A1FF01F059F801F097F801F0ADF801F0EBF8FFF79BFF80BD054B1C7844F001041C70044B1A78D2B2034B1A70A9
:400E4000FFF73EF9E8460040FA460040BC76004080B582B000AF4EF60C53CEF2000340F20042C0F2FA521A604EF61453CEF200034EF61452CEF20002126842F400721A6007
:400E80004FF000037B6014E07A687B684FEA830140F20003C0F200030B441B68194648F20003C1F6FF7343F822107B6803F101037B607B682F2BE7D947F2BC63C4F20003ED
:400EC0001B78DAB248F6B063C1F6FF731A704EF60853CEF2000348F20002C1F6FF721A6001F05AFB07F10807BD4680BD80B483B000AF0346FB7101BE07F10C07BD4680BC2E
:400F0000704700BF80B582B000AF78600BE048F21013C1F6FF731B68184601F029FC7B68A3F500437B607B68B3F5004FEFD848F20813C1F6FF731B687A6802FB03F3184677
:400F400001F016FC07F10807BD4680BD80B582B000AF0346FB80FA8848F20C13C1F6FF731B7803FB02F3184601F002FC07F10807BD4680BD80B584B000AF03463960FB71C9
:400F80004EF60853CEF200031B68FB60FB791F2B07D9FB791F2B8CBF002301231846FFF7A5FFFB7903F01F0303F110034FEA8302FB6813441B68BB60FB7903F01F0303F1E8
:400FC00010034FEA8302FB6813443A681A60BB68184607F11007BD4680BD00BF80B582B000AF02460B46FA71BB71BB79072B07D9BB79072B8CBF002301231846FFF776FF6E
:40100000FB791F2B07D9FB791F2B8CBF002301231846FFF76BFFFB7903F01F0303F1604303F56443BA794FEA4212D2B21A7007F10807BD4680BD00BF80B584B000AF034610
:40104000FB71FB791F2B07D9FB791F2B8CBF002301231846FFF74AFF4EF28023CEF20003FB60FB7903F01F034FF0010202FA03F31A46FB681A6007F11007BD4680BD00BF70
:4010800080B500AF4FF02800FFF73CFF4FF0030000F004FA4FF00500FFF734FF4FF0030000F0FCF94FF00F00FFF72CFF4FF0030000F0F4F94FF00100FFF724FF4FF00200C8
:4010C00000F0ECF94FF00500FFF71CFF4FF0060000F06CF84FF00E0000F068F84FF02C0000F064F84FF0080000F060F84FF0010000F05CF84FF00C0000F058F84FF00300F9
:4011000000F054F84FF00500FFF7FCFE80BD00BF80B500AF4FF00C0000F048F848F67063C1F6FF734FF001021A7080BD80B500AF48F67163C1F6FF731B78002B08D1FFF7F5
:401140009FFF48F67163C1F6FF734FF001021A70FFF7DEFF80BD00BF80B582B000AF0346FB71FB79184600F005F807F10807BD4680BD00BF80B584B000AF0346FB7100F0AE
:4011800035F8FB794FEA1313FB73FB7B184600F02FF9FB7903F00F03FB73FB7B184600F027F907F11007BD4680BD00BF80B584B000AF0346FB71FB794FEA1313FB7300F0FE
:4011C00015F8FB7B03F00F03FB73FB7B184600F065F9FB7903F00F03FB73FB7B184600F05DF907F11007BD4680BD00BF80B582B000AF4FF00003FB7145F22013C4F20003E1
:4012000045F22012C4F200021278D2B202F080021A7045F22213C4F200031B78DBB223F00F03FB7145F22213C4F20003FA7942F00F02D2B21A7045F22313C4F200031B7809
:40124000DBB223F00F03FB7145F22313C4F20003FA791A7045F22413C4F200031B78DBB223F00F03FB7145F22413C4F20003FA791A7045F22013C4F2000345F22012C4F2EF
:4012800000021278D2B202F0DF021A7045F22013C4F2000345F22012C4F200021278D2B242F04002D2B21A704FF00000FFF74EFE45F22013C4F2000345F22012C4F2000228
:4012C0001278D2B242F01002D2B21A704FF00100FFF73CFE45F22113C4F200031B78FB7145F22013C4F2000345F22012C4F200021278D2B202F0EF021A704FF00000FFF707
:4013000025FEFB7903F00803FB7145F22013C4F2000345F22012C4F200021278D2B242F01002D2B21A704FF00100FFF70FFE45F22013C4F2000345F22012C4F200021278F7
:40134000D2B202F0EF021A70FB79002BACD145F22013C4F2000345F22012C4F200021278D2B202F0BF021A7045F22013C4F2000345F22012C4F200021278D2B202F080020B
:401380001A7045F22213C4F200031B78DBB223F00F03FB7145F22213C4F20003FA791A7045F22313C4F200031B78DBB223F00F03FB7145F22313C4F20003FA7942F00F02F8
:4013C000D2B21A7045F22413C4F200031B78DBB223F00F03FB7145F22413C4F20003FA7942F00F02D2B21A7007F10807BD4680BD80B582B000AF0346FB71FFF7F7FE45F2E8
:401400002013C4F2000345F22012C4F200021278D2B242F02002D2B21A7045F22013C4F2000345F22012C4F200021278D2B202F0BF021A7045F22013C4F2000345F2201214
:40144000C4F200021278D2B202F0F0021A7045F22013C4F2000345F22012C4F200021278D1B2FA7941EA0202D2B242F01002D2B21A704FF00100FFF769FD45F22013C4F2B3
:40148000000345F22012C4F200021278D2B202F0EF021A7007F10807BD4680BD80B582B000AF0346FB7145F22013C4F2000345F22012C4F200021278D2B202F09F021A700C
:4014C00045F22013C4F2000345F22012C4F200021278D2B202F0F0021A7045F22013C4F2000345F22012C4F200021278D1B2FA7941EA0202D2B242F01002D2B21A704FF024
:401500000100FFF723FD45F22013C4F2000345F22012C4F200021278D2B202F0EF021A7007F10807BD4680BD80B500AF48F67263C1F6FF731B78002B08D100F00BF848F6A6
:401540007263C1F6FF734FF001021A7000F024F880BD00BF80B400AF46F28443C4F200034FF020021A7046F22653C4F200034FF007021A7046F23653C4F200034FF04802D4
:401580001A7046F28543C4F200034FF000021A70BD4680BC704700BF80B582B000AF01F0EFF80346FB7146F29343C4F2000346F29342C4F200021278D2B242F02002D2B253
:4015C0001A7046F29443C4F2000346F29442C4F200021278D2B242F01002D2B21A7046F29543C4F2000346F29542C4F200021278D2B242F01002D2B21A7044F2A233C4F2C2
:40160000000344F2A232C4F200021278D2B242F00102D2B21A70FB79184601F0B5F807F10807BD4680BD00BF80B483B000AF46F24343C4F200031B78FB71FB79184607F1C8
:401640000C07BD4680BC704780B582B000AF01F097F80346FB7146F29343C4F2000346F29342C4F200021278D2B242F00102D2B21A7046F29343C4F2000346F29342C4F2AF
:4016800000021278D2B202F0FE021A70FB79184601F07AF807F10807BD4680BD80B483B000AF0346FB7146F26543C4F200031B78DBB203F00403002BF5D146F24543C4F23D
:4016C0000003FA791A7007F10C07BD4680BC704780B500AF00F052F841F2F560C0F2000000F018F84FF0070000F028F800F03AF880BD00BF80B582B000AFFFF795FF034634
:40170000FB71FB791846FFF727FD07F10807BD4680BD00BF80B485B000AF78604EF60853CEF200031B68FB60FB6803F14C037A681A6007F11407BD4680BC704780B483B0A9
:4017400000AF0346FB714EF20343CEF20003FA794FEA4212D2B21A7007F10C07BD4680BC704700BF80B400AF4EF20013CEF200034FF008021A60BD4680BC704780B400AF59
:401780004EF28013CEF200034FF008021A60BD4680BC704780B500AF45F60803C4F200034FF00C021A7045F60903C4F2000345F60902C4F200021278D2B242F02002D2B23C
:4017C0001A7045F60A03C4F200036FF07F021A704FF0000000F06EF84FF0010000F04AF880BD00BF80B400AF45F67703C4F2000345F67702C4F200021278D2B26FEA426229
:401800006FEA5262D2B21A7044F2A933C4F2000344F2A932C4F200021278D2B242F00402D2B21A7044F2B933C4F2000344F2B932C4F200021278D2B242F00402D2B21A709D
:40184000BD4680BC704700BF80B500AF48F67463C1F6FF731B78002B08D1FFF79BFF48F67463C1F6FF734FF001021A70FFF7BAFF80BD00BF80B485B000AF0346FB7145F6AD
:401880000903C4F200031B78DBB223F00303FB73FB7903F00303FA7B43EA0203FB7345F60903C4F20003FA7B1A7007F11407BD4680BC704780B483B000AF0346FB71FB79F3
:4018C000082B54D845F60A03C4F2000345F60A02C4F200021278D2B202F080021A7045F60A03C4F2000345F60A02C4F200021278D1B2F87943F27862C0F20002105C97F841
:4019000007C043F28462C0F2000212F80C204FEA8202D2B202F00C0240EA0202D2B241EA0202D2B21A7045F60903C4F2000345F60902C4F200021278D2B202F0F3021A702E
:4019400045F60903C4F2000345F60902C4F200021278D1B2F87943F28462C0F20002125C41EA0202D2B242F00C02D2B21A7007F10C07BD4680BC704780B500AF45F6240366
:40198000C4F200034FF000021A7045F62503C4F200034FF000021A704FF0040000F06AF84FF0000000F03EF880BD00BF80B400AF44F2A833C4F2000344F2A832C4F2000251
:4019C0001278D2B242F00202D2B21A7044F2B833C4F2000344F2B832C4F200021278D2B242F00202D2B21A70BD4680BC704700BF80B500AF48F67563C1F6FF731B78002BFB
:401A000008D1FFF7B9FF48F67563C1F6FF734FF001021A70FFF7CAFF4FF09C0000F054F880BD00BF80B483B000AF0346FB7145F62403C4F2000345F62402C4F200021278B9
:401A4000D2B202F0FD021A7045F62403C4F2000345F62402C4F200021278D1B2FA7902F0020241EA0202D2B21A7007F10C07BD4680BC704780B582B000AF0346FB7145F679
:401A80002403C4F2000345F62402C4F200021278D2B202F0F3021A7045F62403C4F2000345F62402C4F200021278D1B2FA7902F00C0241EA0202D2B21A7000F015F807F1C8
:401AC0000807BD4680BD00BF80B483B000AF0346FB7145F68133C4F20003FA791A7007F10C07BD4680BC704780B483B000AF45F62403C4F200031B78DBB203F00C034FEADB
:401B00009303DBB203F10603FB7144F20963C4F20003FA7902F1924202F598721278D2B21A7007F10C07BD4680BC704780B500AF48F67663C1F6FF731B78002B08D100F03F
:401B40000BF848F67663C1F6FF734FF001021A7000F030F880BD00BF80B500AF4FF0100000F098F94FF002004FF00701FFF736FA4FF0020041F68961C0F20001FFF7FAF9E2
:401B800045F60913C4F2000345F60912C4F200021278D2B242F00602D2B21A704FF00C0000F0ACF848F6B663C1F6FF734FF000021A8080BD80B582B000AF00F0E1FD03460D
:401BC000FB7144F2AB33C4F2000344F2AB32C4F200021278D2B242F00202D2B21A7044F2BB33C4F2000344F2BB32C4F200021278D2B242F00202D2B21A7044F2A133C4F2C5
:401C0000000344F2A132C4F200021278D2B242F00102D2B21A7044F2B133C4F2000344F2B132C4F200021278D2B242F00102D2B21A7045F60B13C4F200031B78BB71BB7995
:401C400043F00203BB71BB7943F00103BB71BB7923F04003BB7145F60B13C4F20003BA791A7045F60E13C4F200034FF004021A7045F60D13C4F2000345F60D12C4F20002DA
:401C80001278D2B242F04002D2B21A7045F60D13C4F2000345F60D12C4F200021278D2B202F0DF021A706FF03F03BB71BB7943F00803BB7145F60813C4F20003BA791A70CC
:401CC00045F62F33C4F2000345F62F32C4F200021278D2B242F00802D2B21A704FF00A00FFF734F94FF00200FFF7A6F9FB79184600F04AFD07F10807BD4680BD80B584B0E7
:401D000000AF0346FB71FB790A2B08D00C2B02D0082B08D00BE06FF03F03FB730AE06FF07F03FB7306E04FF04003FB7302E06FF03F03FB73FB7B43F00403FB7345F60A133A
:401D4000C4F20003FA7B1A70FB79184600F05AF807F11007BD4680BD80B400AF45F60813C4F2000345F60812C4F200021278D2B242F00102D2B21A70BD4680BC704700BF43
:401D800080B584B000AF0346FB7145F60913C4F200031B78DBB203F00103FB73FB7B012B02D0FB79002BF0D0FB7B012B08D14FF00100FFF7CBF845F60913C4F200031B78D7
:401DC000FB7B184607F11007BD4680BD80B483B000AF45F6A233C4F200031B889AB248F6B463C1F6FF731B889BB29BB2C3EB02039BB2FB80FB881BB2184607F10C07BD4600
:401E000080BC704780B485B000AF0346FB7140F6FF73BB604FF40063FB81FB790A2B07D1BB684FEA9303BB60FB894FEA9303FB81FB79082B07D1BB684FEA1313BB60FB8900
:401E40004FEA1313FB81BB684FF47A7202FB03F3BB60BA6841F25973CDF2B713A3FB02134FEA13339AB248F6B263C1F6FF731A8048F6B463C1F6FF734FF000021A8007F198
:401E80001407BD4680BC704780B400AFBD4680BC704700BF80B483B000AF0346FB7144F20213C4F2000344F20212C4F200021278D1B2FA7902F0F80241EA0202D2B21A70FF
:401EC00007F10C07BD4680BC704700BF80B500AF00F048F841F6F160C0F2000000F00EF84FF0070000F01EF800F030F880BD00BF80B500AFFEF7C6FD80BD00BF80B485B07D
:401F000000AF78604EF60853CEF200031B68FB60FB6803F144037A681A6007F11407BD4680BC704780B483B000AF0346FB714EF20143CEF20003FA794FEA4212D2B21A70B7
:401F400007F10C07BD4680BC704700BF80B400AF4EF20013CEF200034FF002021A60BD4680BC704780B400AF4EF28013CEF200034FF002021A60BD4680BC704780B500AFE5
:401F800000F048F841F6A170C0F2000000F00EF84FF0000000F01EF800F030F880BD00BF80B500AFFEF74AFC80BD00BF80B485B000AF78604EF60853CEF200031B68FB605D
:401FC000FB6803F140037A681A6007F11407BD4680BC704780B483B000AF0346FB714EF20043CEF20003FA794FEA4212D2B21A7007F10C07BD4680BC704700BF80B400AF20
:402000004EF20013CEF200034FF001021A60BD4680BC704780B400AF4EF28013CEF200034FF001021A60BD4680BC704780B500AF48F67763C1F6FF731B78002B08D100F001
:402040000BF848F67763C1F6FF734FF001021A7000F024F880BD00BF80B400AF46F28743C4F200034FF020021A7046F22643C4F200034FF007021A7046F23643C4F2000329
:402080004FF048021A7046F28143C4F200034FF000021A70BD4680BC704700BF80B582B000AF00F06DFB0346FB7146F29753C4F2000346F29752C4F200021278D2B242F0C1
:4020C0002002D2B21A7046F29743C4F2000346F29742C4F200021278D2B242F01002D2B21A7046F29143C4F2000346F29142C4F200021278D2B242F01002D2B21A7044F29E
:40210000A233C4F2000344F2A232C4F200021278D2B242F00202D2B21A70FB79184600F033FB07F10807BD4680BD00BF80B483B000AF46F24743C4F200031B78FB71FB7903
:40214000184607F10C07BD4680BC704780B582B000AF00F015FB0346FB7146F29743C4F2000346F29742C4F200021278D2B242F00102D2B21A7046F29743C4F2000346F24D
:402180009742C4F200021278D2B202F0FE021A70FB79184600F0F8FA07F10807BD4680BD80B500AF00F056F842F2C510C0F2000000F01CF84FF0070000F02CF800F03EF8A8
:4021C00080BD00BF80B582B000AFFFF7AFFF0346FB71FB791846FEF7BFFFFB791846FEF7A3FC07F10807BD4680BD00BF80B485B000AF78604EF60853CEF200031B68FB6053
:40220000FB6803F150037A681A6007F11407BD4680BC704780B483B000AF0346FB714EF20443CEF20003FA794FEA4212D2B21A7007F10C07BD4680BC704700BF80B400AFC9
:402240004EF20013CEF200034FF010021A60BD4680BC704780B400AF4EF28013CEF200034FF010021A60BD4680BC704780B485B000AF4FF000037B604FF000033B6036E025
:402280003B684FEA830303F190431B68BB60BB68FB73BB6823F0FF03BB6018E07B684FEA430303F1904303F17C031B781A46BB6813441A467B684FEA430303F1904303F1F5
:4022C0007C035B7813707B6803F101037B60FB7B002B0CBF00230123DBB2FA7B02F1FF32FA73002BDAD13B6803F101033B603B681E2BC5D907F11407BD4680BC704700BFAF
:4023000080B584B000AF07F10803FB6044F28000C4F2000040F23811C0F2180100F038FA44F28400C4F2000040F23811C0F2180100F02EFA44F28800C4F2000040F2572167
:40234000C0F2180100F024FA44F28C00C4F2000040F6B731C0F2190100F01AFA44F20010C4F2000040F22471C4F600014FF0040201F008F844F20033C4F200034FF0020205
:402380001A7044F20003C4F200034FF008021A7044F20023C4F200034FF003021A7044F2A163C4F2000340F20812C4F600121278D2B21A7044F22223C4F200034FF00802CE
:4023C0001A8044F22023C4F2000341F251021A804FF00003FB714FF01903BB601AE0FB79DBB24FEA4303DAB244F22523C4F200031B78DBB203F0010342EA0303DBB203F0C7
:402400000303FB714FF4F07000F0B2F9BB6803F1FF33BB60FB681B68002B03D0FB79DBB2032BDCD144F20403C4F200034FF480721A8044F20403C4F200034FF007021A703B
:4024400044F20603C4F200034FF000021A7044F20803C4F200034FF048021A7044F20403C4F200034FF000021A7044F20103C4F200034FF002021A7044F20B03C4F200030E
:402480004FF004021A7044F2A233C4F2000344F2A232C4F200021278D2B242F00F02D2B21A7044F2A133C4F2000344F2A132C4F200021278D2B242F00102D2B21A7044F25D
:4024C000A033C4F2000344F2A032C4F200021278D2B26FEA42626FEA5262D2B21A7007F11007BD4680BD00BF80B483B000AF40F2CF13C4F600131B78FB7145F66E03C4F204
:402500000003FA7902F007021A7045F66F03C4F20003FA794FEA1212D2B21A7045F20D13C4F200034FF002021A7045F60913C4F200034FF060021A7045F62023C4F200030D
:402540004FF020021A7045F62823C4F200034FF010021A7045F62833C4F200034FF010021A7045F62B33C4F200034FF020021A7045F65833C4F200034FF010021A7045F65A
:402580007603C4F200034FF044021A7007F10C07BD4680BC704700BF80B582B000AF72B644F2E863C4F2000344F2E862C4F200021278D2B242F00402D2B21A704FF00003D4
:4025C000FB7031E0FA7813464FEA430313444FEA43031A4643F29063C0F2000313447B607B681A7859784FEA012141EA020299784FEA014141EA0202DB784FEA036343EA26
:4026000002031A467B6819795B794FEA032343EA01039BB210464FF000011A4600F07AFFFB7803F10103FB70FB78072BCAD9FFF71DFE45F20303C4F2010345F20302C4F298
:4026400001021278D2B242F00202D2B21A7045F21303C4F2010345F21302C4F201021278D2B242F00202D2B21A7044F2A033C4F2000344F2A032C4F200021278D2B242F0E5
:402680004002D2B21A7044F2C233C4F2000344F2C232C4F200021278D2B242F01002D2B21A7045F20210C4F2000040F2FC61C4F600014FF0080200F065FE45F2C010C4F202
:4026C000000040F20471C4F600014FF00A0200F059FE45F22210C4F2000040F21071C4F600014FF0080200F04DFE45F26010C4F2000040F21871C4F600014FF00A0200F0C7
:4027000041FE44F22233C4F2000344F22232C4F200021278D2B242F00802D2B21A7044F60003C4F200034FF001021A70FFF7E8FD44F60003C4F200036FF07E021A7040F24E
:402740000403C4F208034FF001021A70FFF7CCFE44F2B030C4F2000044F2A031C4F200014FF00E0200F00EFE07F10807BD4680BD0230800803D000BF01380046FCD170479A
:40278000EFF3108072B6704780F31088704700BF80B483B000AF786039603B68DAB27B681A707B6803F101037B603B684FEA13233B603B68DAB27B681A707B6803F101034A
:4027C0007B603B684FEA13233B603B68DAB27B681A7007F10C07BD4680BC70472DE9F04F8BB006460F4600F04FF848F21414C1F6FF7494F90030B3F1FF3F8046894631D08B
:402800003046394600F02EF9054600282AD14FF0000A4FF0000B3046394652465B4600F05BFDF8B1247843F2C063C0F20003089501930123CDE902670093CDE90467B4B136
:402840005046594652465B4600F0FEFB022CCDE906010ED100F090FD21230360089B73B9DDE90689404649460BB0BDE8F08FCDE906AB684600F004F90028EFD1EAE700F050
:402880007BFD089B0360EBE740F2000C0B46C7F6F07C02462DE9F047664601EA0C0C0446B4450D468046894600F0BE80002940F38C805FEA215800F09680A8F57E7823F09D
:4028C0007F43A8F1070823F4700318F0010F43F480136AD1D10F4FF0000C01EB43035200654660464FF400114418D60F52009C420CF1010C02DC1B1B6D1860184908BCF1E9
:40290000160F06EB4303EFD100244FF00041A246264613E0834214BF0027012794458CBF002707F001076FB9013407464908D00F5200202C00EB43031BD03846984201EB87
:40294000060CE7DA0CF000470CEB0106B7F1004F27D007461B1A9445CCEB020288BF013B01348A44D00F49085200202C00EB4303E3D113431ED14FEA5A0A4FEA680115F07D
:40298000010F18BF4AF0004A0905544601F17E5101F5C00101EB65031D4620462946BDE8F087002ED5DB471CD4E7D10F520001EB43038FE7BAF1FF3F1CBF0AF001039A446E
:4029C000D9D101354FF0000AD7E721F0004C5CEA000CE2D000293AD18846D30AA8F115085205002BF9D013F480112DD15B00013113F4801FFAD0C1F1200008F1010832FA1C
:402A000000F0C1EB08080343A8F57E788A40A8F1070823F07F4318F0010F23F4700343F480133FF457AFC0E702460B4600F0E2F902460B462046294600F02AF804460D46FD
:402A400020462946BDE8F08720200021D5E702460B4600F01BF802460B4600F0F5FA04460D469AE702464042104321F0004141EAD070C0F1FE4000F57000C00F704700BFA3
:402A80000020704781F0004102E000BF83F0004330B54FEA41044FEA430594EA050F08BF90EA020F1FBF54EA000C55EA020C7FEA645C7FEA655C00F0E2804FEA5454D4EBB4
:402AC0005555B8BF6D420CDD2C4480EA020281EA030382EA000083EA010180EA020281EA0303362D88BF30BD11F0004F4FEA01314FF4801C4CEA113102D0404261EB410189
:402B000013F0004F4FEA03334CEA133302D0524263EB430394EA050F00F0A780A4F10104D5F1200E0DDB02FA0EFC22FA05F2801841F1000103FA0EF2801843FA05F35941F7
:402B40000EE0A5F120050EF1200E012A03FA0EFC28BF4CF0020C43FA05F3C01851EBE37101F0004507D54FF0000EDCF1000C7EEB00006EEB0101B1F5801F1BD3B1F5001F8B
:402B80000CD349085FEA30004FEA3C0C04F101044FEA445212F5800F80F09A80BCF1004F08BF5FEA500C50F1000041EB045141EA050130BD5FEA4C0C404141EB010111F465
:402BC000801FA4F10104E9D191F0000F04BF01460020B1FA81F308BF2033A3F10B03B3F120020CDA0C3208DD02F1140CC2F10C0201FA0CF021FA02F10CE002F11402D8BF19
:402C0000C2F1200C01FA02F120FA0CFCDCBF41EA0C019040E41AA2BF01EB0451294330BD6FEA04041F3C1CDA0C340EDC04F11404C4F1200220FA04F001FA02F340EA03001E
:402C400021FA04F345EA030130BDC4F10C04C4F1200220FA02F001FA04F340EA0300294630BD21FA04F0294630BD94F0000F83F4801306BF81F480110134013D4EE77FEA1B
:402C8000645C18BF7FEA655C29D094EA050F08BF90EA020F05D054EA000C04BF1946104630BD91EA030F1EBF0021002030BD5FEA545C05D14000494128BF41F0004130BD7B
:402CC00014F580043CBF01F5801130BD01F0004545F0FE4141F470014FF0000030BD7FEA645C1ABF194610467FEA655C1CBF0B46024650EA013406BF52EA033591EA030FD2
:402D000041F4002130BD00BF90F0000F04BF0021704730B54FF4806404F132044FF000054FF0000150E700BF90F0000F04BF0021704730B54FF4806404F1320410F0004510
:402D400048BF40424FF000013EE700BF42004FEAE2014FEA31014FEA02701FBF12F07F4393F07F4F81F06051704792F0000F14BF93F07F4F704730B54FF4607401F00045C8
:402D800021F0004120E700BF50EA010208BF704730B54FF000050AE050EA010208BF704730B511F0004502D5404261EB41014FF4806404F132045FEA915C3FF4DCAE4FF0DC
:402DC00003025FEADC0C18BF03325FEADC0C18BF033202EBDC02C2F1200300FA03FC20FA02F001FA03FE40EA0E0021FA02F11444C1E600BF70B54FF0FF0C4CF4E06C1CEAAD
:402E000011541DBF1CEA135594EA0C0F95EA0C0F00F0DEF82C4481EA030621EA4C5123EA4C5350EA013518BF52EA033541F4801143F4801338D0A0FB02CE4FF00005E1FBD4
:402E400002E506F00042E0FB03E54FF00006E1FB03569CF0000F18BF4EF0010EA4F1FF04B6F5007F64F5407404D25FEA4E0E6D4146EB060642EAC62141EA55514FEAC52000
:402E800040EA5E504FEACE2EB4F1FD0C88BFBCF5E06F1ED8BEF1004F08BF5FEA500E50F1000041EB045170BD06F0004646EA010140EA020081EA0301B4EB5C04C2BFD4EB77
:402EC0000C0541EA045170BD41F480114FF0000E013C00F3AB8014F1360FDEBF002001F0004170BDC4F10004203C35DA0C341BDC04F11404C4F1200500FA05F320FA04F0FE
:402F000001FA05F240EA020001F0004221F0004110EBD37021FA04F642EB06015EEA430E08BF20EAD37070BDC4F10C04C4F1200500FA04F320FA05F001FA04F240EA0200D1
:402F400001F0004110EBD37041F100015EEA430E08BF20EAD37070BDC4F1200500FA05F24EEA020E20FA04F301FA05F243EA020321FA04F001F0004121FA04F220EA02002E
:402F800000EBD3705EEA430E08BF20EAD37070BD94F0000F0FD101F00046400041EB010111F4801F08BF013CF7D041EA060195F0000F18BF704703F00046520043EB03036F
:402FC00013F4801F08BF013DF7D043EA0603704794EA0C0F0CEA135518BF95EA0C0F0CD050EA410618BF52EA4306D1D181EA030101F000414FF0000070BD50EA410606BF5C
:403000001046194652EA430619D094EA0C0F02D150EA013613D195EA0C0F05D152EA03361CBF104619460AD181EA030101F0004141F0FE4141F470014FF0000070BD41F008
:40304000FE4141F4780170BD70B54FF0FF0C4CF4E06C1CEA11541DBF1CEA135594EA0C0F95EA0C0F00F0A7F8A4EB050481EA030E52EA03354FEA013100F088804FEA03336A
:403080004FF0805545EA131343EA12634FEA022245EA111545EA10654FEA00260EF000419D4208BF964244F1FD0404F5407402D25B084FEA3202B61A65EB03055B084FEA48
:4030C00032024FF480104FF4002CB6EB020E75EB030E22BFB61A754640EA0C005B084FEA3202B6EB020E75EB030E22BFB61A754640EA5C005B084FEA3202B6EB020E75EBD1
:40310000030E22BFB61A754640EA9C005B084FEA3202B6EB020E75EB030E22BFB61A754640EADC0055EA060E18D04FEA051545EA16754FEA06164FEAC30343EA52734FEA21
:40314000C2025FEA1C1CC0D111F4801F0BD141EA00014FF000004FF0004CB6E711F4801F04BF01430020B4F1FD0C88BFBCF5E06F3FF6AFAEB5EB030C04BFB6EB020C5FEAAA
:40318000500C50F1000041EB045170BD0EF0004E4EEA113114EB5C04C2BFD4EB0C0541EA045170BD41F480114FF0000E013C90E645EA060E8DE60CEA135594EA0C0F08BF67
:4031C00095EA0C0F3FF43BAF94EA0C0F0AD150EA01347FF434AF95EA0C0F7FF425AF104619462CE795EA0C0F06D152EA03353FF4FDAE1046194622E750EA410618BF52EA21
:4032000043067FF4C5AE50EA41047FF40DAF52EA43057FF4EBAE12E74FF0FF3C06E000BF4FF0010C02E000BF4FF0010C4DF804CD4FEA410C7FEA6C5C4FEA430C18BF7FEA3B
:403240006C5C1BD001B050EA410C0CBF52EA430C91EA030F02BF90EA020F0020704710F1000F91EA030F58BF994208BF90422CBFD8176FEAE37040F0010070474FEA410C41
:403280007FEA6C5C02D150EA013C07D14FEA430C7FEA6C5CD6D152EA033CD3D05DF8040B704700BF8446104662468C461946634600E000BF01B5FFF7B7FF002848BF10F190
:4032C000000F01BD4DF808EDFFF7F4FF0CBF012000205DF808FB00BF4DF808EDFFF7EAFF34BF012000205DF808FB00BF4DF808EDFFF7E0FF94BF012000205DF808FB00BF9D
:403300004DF808EDFFF7CEFF94BF012000205DF808FB00BF4DF808EDFFF7C4FF34BF012000205DF808FB00BF4FEA410212F5001215D211D56FF47873B3EB625212D94FEA81
:40334000C12343F0004343EA505311F0004F23FA02F018BF404270474FF00000704750EA013005D111F0004008BF6FF0004070474FF00000704700BF48F21813C1F6FF73DC
:4033800018687047032A2DE9F0070BD83AB1002311F803C000F803C001339342F8D1BDE8F007704782180C46034603E014F8011C03F8011C03F003061946A44601330134F8
:4033C000002EF3D11CF00304634608BFC1EB020C68D06542C4F1040A0CEB050733464FEACA0A5CF805604FEAC408551A08E057F8044F264604FA0AF449EA0404CC500433C6
:403400005C18032D26FA08F9A5F104050CEB0306EDDC002302E0F15CE154013319199142F9D3BCE753F8404C41F8404C53F83C4C41F83C4C53F8384C41F8384C53F8344CA9
:4034400041F8344C53F8304C41F8304C53F82C4C41F82C4C53F8284C41F8284C53F8244C41F8244C53F8204C41F8204C53F81C4C41F81C4C53F8184C41F8184C53F8144C2C
:4034800041F8144C53F8104C41F8104C53F80C4C41F80C4C53F8084C41F8084C53F8044C41F8044C1C460D4640334031BCF13F0FACF1400CB6DC21462B46541B0FE051F825
:4034C000105C43F8105C51F80C5C43F80C5C51F8085C43F8085C51F8045C43F8045C0F2C0D469C4601F1100103F11003A4F11004E5DCCCEB0201002303E0EC584CF8034066
:4035000004335E19032903EB0C04A1F10401F4DC7FE700BF032AC9B230B407D822B10023C15401339342FBD130BC704700EB020C034601E003F8011C03F003041A46013370
:40354000002CF7D14FF00133C2EB0C0403FB01F31FE042F8403C42F83C3C42F8383C42F8343C42F8303C42F82C3C42F8283C42F8243C42F8203C42F81C3C42F8183C42F806
:40358000143C42F8103C42F80C3C42F8083C42F8043C154640323F2CA4F14004D9DC2A46C5EB0C0407E042F8103C42F80C3C42F8083C42F8043C154610320F2CA4F110045D
:4035C000F1DC2A46C5EB0C0501E042F8043C14460432032DA5F10405F7DC01E004F8011B6445FBD3A0E700BF08B500F017F8074800B10068064901B109680022FDF7A2F943
:40360000044B0BB1AFF30080FEE700BF000000000000000000000000FEE7000070B543F2D86643F2D865C0F20006C0F20005761BB61006D0002455F8243001349847A6426D
:40364000F9D843F2D86543F2E066C0F20005C0F20006761B00F03AF8B61006D0002455F8243001349847A642F9D870BD2C0100002025303278000000011121314161536307
:4036800073000000080901010507070404000000105100401000305100403000F0510040100000000140001000140140000800400140000A004C01400002005001402000BD
:4036C000737172740000000043000000F8B500BFF8BC08BC9E46704731010000510E0000F8B500BFF8BC08BC9E4670471D01000000000000083700000080FF1F1002000021
:40370000A80C0000000000000000000000000000000000000000000000000000000000000000000000000000000000000000000000000000000000000000000000000000D5
:403740000000000000000000000000000000000000000000000000000000000000000000000000000000000000000000000000000000000000000000000000000000000049
:403780000000000000000000000000000000000000000000000000000000000000000000000000000000000000000000000000000000000000000000000000000000000009
:4037C00000000000000000000000000000000000000000000000000000000000000000000000000000000000000000000000000000000000000000000000000000000000C9
:4038000000000000000000000000000000366E01C05D0000180000000000E02E010000001C81FF1F00000000000000000000000000000000000000000000000000000000E4
:4038400000000000C836000000000000000000000000000000000000000000000000000000000000000000000000000000000000000000000000000000000000000000004A
:403880000000000000000000000000000000000000000000000000000000000000000000000000000000000000000000000000000000000000000000000000000000000008
:4038C00000000000000000000000000000000000000000000000000000000000000000000000000000000000000000000000000000000000000000000000000000000000C8
:403900000000000000000000000000000000000000000000000000000000000000000000000000000000000000000000000000000000000000000000000000000000000087
:403940000000000000000000000000000000000000000000000000000000000000000000000000000000000000000000000000000000000000000000000000000000000047
:020000040003F7
:0200000480007A
:400000000552004005640040016500404E00014030010140540201404A03014050040140470501406706014049070140010B0140020D014001150140501601403917014027
:40004000011B014006400140064101400D4201400A430140044401400345014001460140014701400548014005490140054C0140014D01400550014002510140304031408A
:40008000340161086404810F83728438850F87388772001C010102620310047F052F086009020D0F0E630F20101C11231261130C150C1604180819041C671D081E182010BA
:4000C000210C232324402540281829032C242F233060312C330F3510361F37403AA03B0A3F40580459045F0181018A0E900998039A049C039E0CA803AA04B501B60FBA807C
:40010000BF10C043C102C5EBC70CC813C9FFCAFFCBFFCEF0CF44D00CD401D804D904DA04DB04DC01DD11DF01E6C0EA40EB02018003A8060809200A210B400E420F08108041
:40014000121A1720180819011BA01E022062221023402708281029802B883082312432083601370238093A103B403D01450847224D014F0457045C205D015E805F08C04F58
:40018000C2DFC44FCA0FCC0FCE8FD0E0D6F00001010407011101130A19011B06270F2C022D0C2F013202330E340137013B083E143F40580459045C105F0180278109821081
:4001C00083328437851F8831891F8A068C268D148E118F2A92019406950297459802A004A408A808AC08B007B118B210B307B420B560B608B808BE10BF10C065C103C204B2
:40020000C402C5C0C70EC812C9FFCAFFCBFFCC62CDA0CEF0CF41D00CD602D711D804D904DA04DB04DF01E640E702E910EA30EB10ED10EE10EF120060012003A004020920A2
:400240000A100B8010801154160119981A801B021D081F102004220623402640272028202B202E483204330836013720380139143B403D013F0840244302484049A04B8042
:4002800052045910695470807124721090419304964099019C109D849E189F20A010A201A3A4A480A528A640A708A820AB04AC13AE01B401B602C01FC20EC48FCA50CCA2A5
:4002C000CECFD007D20CD604EC0806020E0112012204260427012A02300132023301340439023E153F0154185604580459045B045C105F0181208380851489098A278B10AC
:400300008C148E018F0393C095E099E09C319D109E029F0CA004A310A780A831A90CAA06AB11AC08AD1CAF02B007B230B380B408B560B71FB808B920BA02BE14BF14C034EF
:40034000C102C5E0C6CBC80EC9FFCAFFCBFFCEF0CF44D00CD401D604D804D904DA04DB04DC11DF01E6C0EA40EB0200800108047006080A800C400E021294140615011720F9
:4003800019101B051C401D081E482104220224022544270828202C042D012E402F20344037153C103D803E013F04450147144F015640572059015C025D905E085F01634A42
:4003C0006780820287409280930494029501964099099A049B209C109E09A040A201AE12B310C0C5C288C4DECAF2CCF0CEF0D0E0D6F1D88DE001EA200014012909200C09E2
:400400000EF0133E148015031610171C19031A031B341C9C1E2224302503264C2704282C29402AD131403338341F350F36E037403A803B283F01400345504710482249FFD9
:400440004A074BFF4C404D204EF04F055008580459045A045D015F01604061A862406320810A8351851486018749899F8C028D018F269180999FA201B001B107B202B360F7
:40048000B518B780BE01BF04C045C106C202C403C6ECC80CC9FFCAFFCBFFCC62CDA0CEF0CF41D00CD418D604D804D904DA04DB04DC11DD11DF01E640E702E910EA30EB1025
:4004C000ED10EE10EF12000401080201064007010C100D200E111080171418201B011D201E01205222102304250127152F2830223715384039103A023B043D203E11401471
:400500004240450848014A084D015080521056015A0260806110630284809108942095019601982099109A429B089C109E119F15A108A320A501A680A984AC20AE02AF402B
:40054000B110B320C095C2E0C468CA60CCE5CEAFD047D20CD601D80DE001EC08EE10EE020301050209060D010F06110415071D061F012506270131073B024003465047015E
:40058000481849FF4A074BFF4C404D204EF04F05500859045A045C105F01604061A862406320811C823283E1840F86308704883F89088C308D10903391E7920C931894204E
:4005C00095FF981099409F63A008A124A404A51CA7E2A80CA918AC3DAD60AE02B03CB160B20EB401B51FB780B980BA02BB28BE10D602D711D804D904DB04DC11DD10DF0135
:4006000000660180036008200A60120113A619181A401B0220242289278029802A222B202F20321833423608378238A039083A013C023E54470855105708591068226910EC
:400640007050723473269040910892209510964298209A029B089D08A001A422A510A688A708C00FC20EC40FCA4FCCDFCEFFD040D604EE023110330837823B40CCF0CE1027
:40068000312097409D109F82A708CC1003205180870297409D109F82A180A520A708B180C010D420E640874097409D109F80A708AD20AF20E640EA10EC1000016708C008DE
:4006C000D801AF04B401EE088140918027809D109F80A708C88019109D10AF08C640EE401F1039809180C601CE08AF10000308030A0310031A0300BF010A0000000000005C
:4007000000000600040004080800080000000000007F7F00000000000100014040004000000000000C001801000000000000000000000000000000000000000000000000AE
:400740000000000000000000000000000000000000000000000000000000000000000000000000000000000000000000000000000000000000000000000000000000000079
:400780000000000000000000000000000000000000000000000000000000000000000000000000000000000000000000000000000000000000000000000000000000000039
:4007C00000000000000000000000000000000000000000000000000000000000000000000000000000000000000000000000000000000000000000000000000000000000F9
:4008000000000000000000000000000000000000000000000000000000000000000000000000000000000000000000000000000000000000000000000000000000000000B8
:0200000490006A
:0400000000004005B7
:0200000490105A
:04000000AFAC90BC55
:0200000490303A
:02000000B62127
:0200000490501A
:0C00000000012E12306900012E2BE68A50
:0200000490402A
:4000000000000000000000000000000000000000000000000000000000000000000000000000000000000000000000000000000000000000000000000000000000000000C0
:400040000000000000000000000000000000000000000000000000000000000000000000000000000000000000000000000000000000000000000000000000000000000080
:400080000000000000000000000000000000000000000000000000000000000000000000000000000000000000000000000000000000000000000000000000000000000040
:4000C0000000000000000000000000000000000000000000000000000000000000000000000000000000000000000000000000000000000000000000000000000000000000
:00000001FF
