:03000000020100FA
:030003000201B93E
:10010000020118120319800BB80105120295800331
:100110001202961202BB80EB758160758922758888
:1001200051759850758DFD758C4C1201B2C29212AA
:100130000135020103780C79011202AB780C7901C8
:100140001202AB780C79011202AB780C7901120221
:10015000AB1202B6780B79071202AB780B79071253
:1001600002AB780B79071202AB780B79071202AB5E
:100170001202B6780979001202AB780979001202EE
:10018000AB780979001202AB780979001202AB1240
:1001900002B6780A790F1202AB780A790F1202AB15
:1001A000780A790F1202AB780A790F1202AB1202A9
:1001B000B62275200022222222C00090FE20E0D02C
:1001C000003212031988301203198831120319887A
:1001D000321203198833120319883412031988352F
:1001E0001203198836120319883712031988382226
:1001F000E875F01084120386F822E875F010841276
:100200000399F822A8301201FA88408841A83212D6
:1002100001FA88428843A8321201FA88448845A826
:10022000331201FA88468847A8301201F0884888BE
:1002300049A8311201F0884A884BA8321201F0888F
:100240004C884DA8331201F0884E884FA834120113
:10025000FA88508851A8351201FA88528853A83676
:100260001201FA88548855A8371201FA885688571F
:10027000A8341201F088588859A8351201F0885A1C
:10028000885BA8361201F0885C885DA8371201F0FF
:10029000885E885F222222E87908C29130E704D282
:1002A000908002C290D29123D9F022C0011202970D
:1002B000D00012029722D292C292227F087E077447
:1002C00040C0062ED006F8E6A907A8071202AB74B4
:1002D00048C0062ED006F8E6A907A8071202AB749C
:1002E00050C0062ED006F8E6A907A8071202AB7484
:1002F00058C0062ED006F8E6A907A8071202AB12CE
:1003000002B61EDFBA22780179BFD9FEA9BFD8FA9A
:1003100022C29988993099FD223098FDA899C298F7
:1003200022780A120311780D12031122E8C0E0129C
:10033000033EF8120311A802120311D0E022FA546E
:100340000F24F650022407243ACAC4540F24F6504E
:10035000022407243A22120319E812036BC4F5F0B1
:10036000120319E812036B45F0F82224D05017C38A
:1003700024F64003240A22C2E5C324F95008C3240A
:10038000FA4003540F220483220103070F1F3F7F0B
:10039000FFFFFFFFFFFFFFFFFF04832200000000BD
:0C03A000000000000103070F1F3F7FFF5B
:00000001FF
