:03000000020100FA
:100100000201181204EE1204E6800BB80105120277
:10011000FB80031202FC80EB758140758920758895
:1001200041759850758DFDC29212012F020103781E
:100130000C7901120311780C7901120311780C79F2
:1001400001120311780C790112031112031C780BB0
:100150007907120311780B7907120311780B7907CD
:10016000120311780B790712031112031C78097915
:10017000001203117809790012031178097900122D
:1001800003117809790012031112031C780F79000A
:10019000120311780F7900120311780F79001203FE
:1001A00011780F790012031112031C780A790F12CB
:1001B0000311780A790F120311780A790F120311CB
:1001C000780A790F12031112031C227520002222D3
:1001D00022221204EE88301204EE88311204EE88D6
:1001E000321204EE88331204EE88341204EE88359D
:1001F0001204EE88361204EE88371204EE88382294
:10020000781122E875F0108412052BF822788822E4
:10021000E875F0108412053EF822A83012020DE8AD
:10022000904000F0904001F0A83112020DE890409B
:1002300002F0904003F0A83212020DE8904004F062
:10024000904005F0A83312020DE8904006F090406F
:1002500007F0A830120200E8904008F0904009F042
:10026000A831120200E890400AF090400BF0A8324A
:10027000120200E890400CF090400DF0A8331202FA
:1002800000E890400EF090400FF0A83412020DE804
:10029000904010F0904011F0A83512020DE8904007
:1002A00012F0904013F0A83612020DE8904014F0BE
:1002B000904015F0A83712020DE8904016F09040DB
:1002C00017F0A834120200E8904018F0904019F09E
:1002D000A835120200E890401AF090401BF0A836B2
:1002E000120200E890401CF090401DF0A837120266
:1002F00000E890401EF090401FF0222222E879088A
:10030000C29130E704D2908002C290D29123D9F0FA
:1003100022C0011202FDD0001202FD22C292D2922E
:100320001204DB22904000E0F978011203119040A2
:1003300008E0F97801120311904010E0F9780112F9
:100340000311904018E0F9780112031112031C9078
:100350004001E0F97802120311904009E0F97802B7
:10036000120311904011E0F9780212031190401924
:10037000E0F9780212031112031C904002E0F978B0
:100380000312031190400AE0F97803120311904020
:1003900012E0F9780312031190401AE0F978031281
:1003A000031112031C904003E0F97804120311902A
:1003B000400BE0F97804120311904013E0F978043F
:1003C00012031190401BE0F9780412031112031C70
:1003D000904004E0F9780512031190400CE0F978A0
:1003E00005120311904014E0F978051203119040B2
:1003F0001CE0F9780512031112031C904005E0F986
:10040000780612031190400DE0F97806120311905E
:100410004015E0F9780612031190401DE0F97806C6
:1004200012031112031C904006E0F9780712031121
:1004300090400EE0F97807120311904016E0F97829
:100440000712031190401EE0F978071203111203FE
:100450001C904007E0F9780812031190400FE0F972
:100460007808120311904017E0F9780812031190F0
:10047000401FE0F9780812031112031C227F087E46
:1004800007904000E5822EF582E0F9A807120311DB
:10049000904008E5822EF582E0F9A807120311903A
:1004A0004010E5822EF582F8E0F9A80712031190BA
:1004B0004018E5822EF582E0F9A807120311120315
:1004C0001C1EDFBD22904000E0F87A07A3E0F9E8A7
:1004D000F0A801DAF7904000E8F02278017940D9DD
:1004E000FE7940D8FA22C29988993099FD22309835
:1004F000FDA899C29822780A1204E6780D1204E643
:1005000022E8C0E0120513F81204E6A8021204E67D
:10051000D0E022FA540F24F650022407243ACAC429
:10052000540F24F650022407243A220483220103A4
:10053000070F1F3F7FFFFFFFFFFFFFFFFFFF04834A
:100540002200000000000000000103070F1F3F7F92
:01055000FFAB
:00000001FF
