:03000000020100FA
:1001000002010580FE7581307590FF1201370201F2
:1001100003E87908C29130E704D2908004C290D2FB
:1001200091D29123D9EE22C001120111D000120107
:100130001122C292D2922278FF79FF12012778FF12
:1001400079FF12012778FF79FF12012778FF79FFE5
:100150001201271201322290FE10E8F02278017974
:10016000BFD9FEA9BFD8FA22C29988993099FD2239
:100170003098FDE599547FF8C29822780A120168F8
:10018000780D12016822E8C0E0120198F8120168A7
:10019000A802120168D0E022FA540F24F65002247B
:1001A00007243ACAC4540F24F650022407243A22E2
:00000001FF
