:03000000020100FA
:1001000002010E1202061201CD12022280F5758143
:1001100030758922758851759850758DFD7590FFE1
:10012000C29212012B1201CD020103780C79011247
:1001300001BD780C79011201BD780C79011201BD65
:10014000780C79011201BD1201C8780B79071201F0
:10015000BD780B79071201BD780B79071201BD78C4
:100160000B79071201BD1201C8780979001201BD8F
:10017000780979001201BD780979001201BD78096A
:1001800079001201BD1201C8780A790F1201BD78F9
:100190000A790F1201BD780A790F1201BD780A7928
:1001A0000F1201BD1201C82222E87908C29130E77E
:1001B00004D2908002C290D29123D9F022C00112C1
:1001C00001A9D0001201A922D292C292229010005D
:1001D0007A08E0F9A88208C002C083C082AE00AFEE
:1001E000011201BDA806A9071201BDA806A90712A0
:1001F00001BDA806A9071201BD1201C8D082D08393
:10020000D002A3DACD22901000E0F87A07A3E0F93B
:10021000E8F0A801DAF7901000E8F02290FE10E86C
:10022000F02278FF79FFD9FEA9FFD8FA22C2998877
:10023000993099FD223098FDE599547FF8C29822B3
:10024000780A12022D780D12022D22E8C0E0120267
:100250005DF812022DA80212022DD0E022FA540FEE
:1002600024F650022407243ACAC4540F24F650023C
:050270002407243A22DE
:00000001FF
