:03000000020100FA
:1001000002010580FE7581307590FF1201370201F2
:1001100003E87908C29130E704D2908004C290D2FB
:1001200091D29123D9EE22C001120111D000120107
:100130001122C292D2922278FF79FF120127120176
:10014000322290FE10E8F022780179BFD9FEA9BFD3
:10015000D8FA22C29988993099FD223098FDE59904
:10016000547FF8C29822780A120153780D12015375
:1001700022E8C0E0120183F8120153A802120153D1
:10018000D0E022FA540F24F650022407243ACAC4BD
:0B019000540F24F650022407243A22EA
:00000001FF
